:100000000C943E000C9448000C9448000C94D602CA
:100010000C9448000C9448000C9448000C94480040
:100020000C9448000C9448000C9448000C94480030
:100030000C9448000C9448000C9448000C94480020
:100040000C9448000C9448000C9448000C94480010
:100050000C9448000C9448000C9448000C94480000
:100060000C9448000C9448000C9448000C944800F0
:100070000C9448000C9448000C94480011241FBEB6
:10008000CFEFCDBFDFE3DEBF0E9411020C94F2067A
:100090000C940000CF93DF93CDB7DEB70E949C0590
:1000A0000000DF91CF910895CF93DF9300D000D06F
:1000B000CDB7DEB78B836C838B81882F90E0805F18
:1000C0009B4F89839A8389819A81FC018081982F33
:1000D000987F8C81892B282F89819A81FC0120832C
:1000E00000002496CDBFDEBFDF91CF910895CF935E
:1000F000DF9300D0CDB7DEB789836A838A818823F6
:10010000A9F020E030E080E090E0FC018181682FE0
:100110008981482F50E081E090E002C0880F991F4C
:100120004A95E2F7862BF901818315C020E030E083
:1001300080E090E0FC018181682F8981482F50E0A8
:1001400081E090E002C0880F991F4A95E2F7809500
:100150008623F901818300000F900F90DF91CF91EA
:100160000895CF93DF931F92CDB7DEB7898380E0E8
:1001700090E0FC018281282F30E08981482F50E0F7
:1001800081E090E002C0880F991F4A95E2F7822330
:10019000932321E0892B09F420E0822F0F90DF9137
:1001A000CF910895CF93DF9300D0CDB7DEB7898389
:1001B0006A838A81882F90E081309105E1F0823056
:1001C000910571F1892B09F03BC084E090E024E0B7
:1001D00030E0F9012081622F2981422F50E021E097
:1001E00030E002C0220F331F4A95E2F72095262304
:1001F000FC01208325C084E090E024E030E0F90198
:100200002081622F2981422F50E021E030E002C09E
:10021000220F331F4A95E2F7262BFC01208310C0E2
:100220008981882F90E0805D9B4F2981222F30E0CB
:10023000205D3B4FF90120812860FC0120830000F4
:1002400000000F900F90DF91CF910895CF93DF932F
:1002500000D0CDB7DEB789836A838A818823A9F06D
:1002600084E090E024E030E0F9012181622F2981CF
:10027000422F50E021E030E002C0220F331F4A95A8
:10028000E2F7262BFC01218315C084E090E024E0F6
:1002900030E0F9012181622F2981422F50E021E0D5
:1002A00030E002C0220F331F4A95E2F72095262343
:1002B000FC01218300000F900F90DF91CF910895F2
:1002C000CF93DF931F92CDB7DEB7898384E090E0B0
:1002D00024E030E0F9012281622F2981422F50E091
:1002E00021E030E002C0220F331F4A95E2F7262BAF
:1002F000FC01228300000F90DF91CF910895CF93EE
:10030000DF931F92CDB7DEB78983698182E00E94B7
:10031000540000000F90DF91CF910895CF93DF93A9
:10032000CDB7DEB782E00E94B100DF91CF91089592
:10033000CF93DF931F92CDB7DEB78983698183E0C6
:100340000E94770000000F90DF91CF910895CF9326
:10035000DF931F92CDB7DEB78983698183E00E9466
:10036000260100000F90DF91CF910895CF93DF9386
:10037000CDB7DEB783E00E9460010000DF91CF912E
:100380000895CF93DF931F92CDB7DEB7898369813C
:1003900084E00E94260100000F90DF91CF91089524
:1003A000CF93DF931F92CDB7DEB78983698185E054
:1003B0000E94D20000000F90DF91CF910895CF935B
:1003C000DF931F92CDB7DEB78983698185E00E94F4
:1003D000260100000F90DF91CF910895CF93DF9316
:1003E00000D01F92CDB7DEB789839A836B83898152
:1003F0009A814B8168ED0E94C60500002396CDBF0F
:10040000DEBFDF91CF910895CF93DF93CDB7DEB7F5
:1004100061E081E490E00E94EE010000DF91CF9165
:100420000895CF93DF93CDB7DEB72F97CDBFDEBF53
:100430000E9422030E944A00198277C080E090E067
:10044000AAEFB3E48A839B83AC83BD8320E030E0D2
:100450004AE755E46A817B818C819D810E945D061B
:10046000DC01CB018E839F83A887B98720E030E031
:1004700040E85FE36E817F81888599850E94D7057A
:1004800088232CF481E090E08A879B873FC020E09E
:100490003FEF4FE757E46E817F81888599850E9401
:1004A000580618164CF520E030E040E251E46A812D
:1004B0007B818C819D810E945D06DC01CB01BC01AA
:1004C000CD010E94DC05DC01CB018A879B870FC030
:1004D00080E991E08C879D878C859D850197F1F758
:1004E0008C879D878A859B8501978A879B878A85CC
:1004F0009B85892B69F714C06E817F8188859985DA
:100500000E94DC05DC01CB018A879B878A859B855D
:100510008E879F878E859F850197F1F78E879F87AE
:100520000E94B60189818F5F898389818A3008F4AE
:1005300085CF81E00E94D00180E092E0FC01128230
:1005400080E00E94A70180E00E94C10180E00E943B
:10055000DF0189E094E0FC018081882F90E08470C5
:100560009927892B49F089E094E029E034E0F901EA
:1005700020812460FC01208385E00E947F0180E0CF
:100580000E94980180E590E020E530E0F9012081AB
:100590002160FC012083889580E590E020E530E033
:1005A000F90120812E7FFC012083FFCF1F920F9243
:1005B00000903F000F9211242F933F934F935F932E
:1005C0006F937F938F939F93AF93BF93EF93FF931B
:1005D000CF93DF93CDB7DEB789E094E0FC01808153
:1005E000882F90E084709927892B91F089E094E01E
:1005F00029E034E0F90120812460FC0120830E947D
:100600008E01982F81E08927882311F00E9404022F
:1006100089E094E02FEFFC0120830000DF91CF916F
:10062000FF91EF91BF91AF919F918F917F916F91CA
:100630005F914F913F912F910F9000923F000F904B
:100640001F901895CF93DF93CDB7DEB780E00E945F
:10065000DF0181E00E94D00180E092E020E032E002
:10066000F90122812460FC01228380E09AE025E0E8
:1006700030E0FC0124A735A780E09AE023E4FC01E8
:10068000218380E09AE029E030E0FC0126A337A333
:1006900080E09AE021E0FC0120830000DF91CF910F
:1006A0000895CF93DF93CDB7DEB780E0DF91CF9190
:1006B0000895CF93DF9300D01F92CDB7DEB7898323
:1006C0009A836B8389819A814B8168ED0E94C6056C
:1006D00000002396CDBFDEBFDF91CF910895CF9369
:1006E000DF93CDB7DEB760E181E690E00E94590369
:1006F00080E0DF91CF910895CF93DF93CDB7DEB740
:10070000789480E0DF91CF910895CF93DF9300D06C
:1007100000D0CDB7DEB78B836C838B81882F90E0C0
:10072000805F9B4F89839A838C81813059F48981C2
:100730009A81FC018081282F286089819A81FC019F
:1007400020830DC08C81882351F489819A81FC011A
:100750008081282F277F89819A81FC0120830000D6
:100760002496CDBFDEBFDF91CF910895CF93DF9365
:1007700000D0CDB7DEB789836A838A81882F90E065
:1007800081309105E1F08230910571F1892B09F0FA
:100790003BC020E030E080E090E0FC018081682FE9
:1007A0008981482F50E081E090E002C0880F991FB6
:1007B0004A95E2F780958623F901808325C020E0E1
:1007C00030E080E090E0FC018081682F8981482F33
:1007D00050E081E090E002C0880F991F4A95E2F74F
:1007E000862BF901808310C08981882F90E0805F7B
:1007F0009B4F2981222F30E0205F3B4FF901208160
:100800002860FC012083000000000F900F90DF9112
:10081000CF910895CF93DF9300D0CDB7DEB7898312
:100820006A838A818823A9F020E030E080E090E0AC
:10083000FC018181682F8981482F50E081E090E0A0
:1008400002C0880F991F4A95E2F7862BF901818330
:1008500015C020E030E080E090E0FC018181682F4D
:100860008981482F50E081E090E002C0880F991FF5
:100870004A95E2F780958623F901818300000F9065
:100880000F90DF91CF910895CF93DF9300D0CDB734
:10089000DEB789836A838A81882F90E08130910551
:1008A000E1F08230910571F1892B09F03BC084E0C1
:1008B00090E024E030E0F9012081622F2981422F6D
:1008C00050E021E030E002C0220F331F4A95E2F7EA
:1008D00020952623FC01208325C084E090E024E0BD
:1008E00030E0F9012081622F2981422F50E021E080
:1008F00030E002C0220F331F4A95E2F7262BFC019D
:10090000208310C08981882F90E0805D9B4F2981D2
:10091000222F30E0205D3B4FF90120812860FC014F
:100920002083000000000F900F90DF91CF91089579
:10093000CF93DF9300D0CDB7DEB789836A838A81F6
:100940008823A9F084E090E024E030E0F9012181DF
:10095000622F2981422F50E021E030E002C0220FB7
:10096000331F4A95E2F7262BFC01218315C084E052
:1009700090E024E030E0F9012181622F2981422FAB
:1009800050E021E030E002C0220F331F4A95E2F729
:1009900020952623FC01218300000F900F90DF910A
:1009A000CF910895CF93DF931F92CDB7DEB78983A0
:1009B000698182E00E94850300000F90DF91CF9152
:1009C0000895CF93DF931F92CDB7DEB789836981F6
:1009D00082E00E94B60300000F90DF91CF9108954E
:1009E000CF93DF931F92CDB7DEB78983698183E010
:1009F0000E94B60300000F90DF91CF910895CF932E
:100A0000DF931F92CDB7DEB78983698183E00E94AF
:100A10000A0400000F90DF91CF910895CF93DF93E8
:100A20001F92CDB7DEB78983698183E00E944404B9
:100A300000000F90DF91CF910895CF93DF931F9225
:100A4000CDB7DEB78983698183E00E9498040000F6
:100A50000F90DF91CF910895CF93DF931F92CDB781
:100A6000DEB78983698184E00E94440400000F900E
:100A7000DF91CF910895CF93DF931F92CDB7DEB76B
:100A80008983698184E00E94980400000F90DF91BF
:100A9000CF910895CF93DF9300D01F92CDB7DEB7EB
:100AA000198212C08981882F90E0805F9B4F298135
:100AB000222F30E0205F3B4FF90120812860FC01AC
:100AC000208389818F5F89838981883058F31A82D6
:100AD00012C08A81882F90E0805D9B4F2A81222F4F
:100AE00030E0205D3B4FF90120812860FC0120832C
:100AF0008A818F5F8A838A81883058F31B8212C073
:100B00008B81882F90E0805B9B4F2B81222F30E0E0
:100B1000205B3B4FF90120812860FC0120838B8101
:100B20008F5F8B838B81883058F300002396CDBF75
:100B3000DEBFDF91CF910895CF93DF93CDB7DEB7BE
:100B40000E944A0580E00E94E10481E00E94D204F4
:100B500081E00E94FF0481E00E94F0040E946F0384
:100B600080E00E941D0581E00E940E0580E00E9449
:100B70003B0581E00E942C050E947C030E94CA056F
:100B80000E9451030000DF91CF910895FC0164BFE2
:100B900040830895CF93DF93CDB7DEB780E590E033
:100BA00023E0FC01208380E0DF91CF9108950E9433
:100BB0000B0608F481E008950E94370688F09F57DD
:100BC00098F0B92F9927B751B0F0E1F0660F771F71
:100BD000881F991F1AF0BA95C9F714C0B13091F067
:100BE0000E945106B1E008950C945106672F782FAA
:100BF0008827B85F39F0B93FCCF38695779567952C
:100C0000B395D9F73EF490958095709561957F4F97
:100C10008F4F9F4F0895990F0008550FAA0BE0E8DA
:100C2000FEEF16161706E807F907C0F012161306AE
:100C3000E407F50798F0621B730B840B950B39F4EE
:100C40000A2661F0232B242B252B21F408950A2654
:100C500009F4A140A6958FEF811D811D089557FDD0
:100C60009058440F551F59F05F3F71F04795880F1A
:100C700097FB991F61F09F3F79F0879508951216B1
:100C800013061406551FF2CF4695F1DF08C016165D
:100C900017061806991FF1CF86957105610508940E
:100CA0000895E894BB2766277727CB0197F9089525
:100CB0000E940B0608F48FEF08950E9470060C94B2
:100CC000E1060E94D30638F00E94DA0620F0952350
:100CD00011F00C94CA060C94D00611240C94520600
:100CE0000E942F0670F3959FC1F3950F50E0551F9A
:100CF000629FF001729FBB27F00DB11D639FAA2771
:100D0000F00DB11DAA1F649F6627B00DA11D661FBF
:100D1000829F2227B00DA11D621F739FB00DA11DE0
:100D2000621F839FA00D611D221F749F3327A00D9A
:100D3000611D231F849F600D211D822F762F6A2F36
:100D400011249F5750409AF0F1F088234AF0EE0F9B
:100D5000FF1FBB1F661F771F881F91505040A9F7C8
:100D60009E3F510580F00C94CA060C9452065F3FDA
:100D7000E4F3983ED4F3869577956795B795F79504
:100D8000E7959F5FC1F7FE2B880F911D969587957C
:100D900097F9089597F99F6780E870E060E00895FB
:100DA0009FEF80EC089500240A9416161706180683
:100DB0000906089500240A9412161306140605065F
:100DC0000895092E0394000C11F4882352F0BB0FF0
:100DD00040F4BF2B11F460FF04C06F5F7F4F8F4F53
:080DE0009F4F0895F894FFCF26
:00000001FF
